:0C0000000C943D000C9400000C940000D7
:10000C000C9400000C9400000C9400000C94000064
:10001C000C9400000C9400000C9400000C94000054
:10002C000C9400000C9400000C9400000C94000044
:10003C000C9400000C9400000C9400000C946A00CA
:10004C000C9400000C9400001027E80364000A00D4
:10005C000100001000011000010060020025640086
:10006C000200040066000100600268000000F894C1
:10007C00EE27ECBBF1E0FBBFEBBFE5BF8DE0A2E0F0
:10008C00BB27ED938A95E9F780E098E0A0E6ED9325
:10009C000197E9F7ECE6F0E085919591009761F016
:1000AC00A591B59105901590BF01F00105900D92A9
:1000BC000197E1F7FB01F0CFEFE5EDBFE8E0EEBF14
:1000CC00C0E6D2E00C9494000A921A92FA926A93C7
:1000DC007A938A939A93AA93BA93EA93FA93EFB783
:1000EC00EA93A1E07FD0E991EFBFF991E991B99141
:1000FC00A9919991899179916991F99019900990A7
:10010C001895AA93E881E7B98BE18A95F1F7369AAD
:10011C00349BFECF349AE4B1F5B169C0E0E0EABBA0
:10012C00EBBBE7BBE8BBEFEFE4BBE0E0E5BBE1BB5F
:10013C00E2BBE3BFE2BFECBFEFBDEEBDEDBDECBD7E
:10014C00E7BDE6BDEBBDEABDE9BDE8BDE2BDE5BD81
:10015C00E4BDE3BDE9BFE5BFE4BFE1E0EBB9E8E036
:10016C00EAB9E6E8E0BDE0E0E0BDE3E3E9B9E8E0E8
:10017C00E8B9E0E0E7B9E3EAE6B9E0E0E0BFEDB901
:10018C00E6BF7894A0E02ED0A0E0D899A1E0B9DF2A
:10019C003F015A924A92E9E6F0E0FA93EA93F301AE
:1001AC000E9412030E94530384E00E94730228965B
:1001BC000E94C0029E2E0E94C7028E2E0E94C70271
:1001CC00BE2E0E94C702AE2EAA2D0E94CE02AB2DCF
:1001DC000E94CE02A82D0E94CE02A92D0E94CE0212
:1001EC00D1CFFFCFAA935D9BFECFE881ECB92196CE
:1001FC000895BA93AA931A930A93AA81BB81129673
:10020C000E944B03309759F1AA81BB8114960E942E
:10021C004B038F01309761F00230E0E01E0798F03D
:10022C00F80131978F01AA81BB811496ED93FC9351
:10023C00AA81BB811296ED91FD913196FE93EE93BE
:10024C003197AC81A083AA81BB810E944B03FF2311
:10025C002AF0ED91FD913196FE93EE9306C0AA81A2
:10026C00BB81EFEFFFEFED93FC931981088125968D
:10027C000895BA93AA9326970E94580310E0AC8570
:10028C00BD85E0E0F0E0ED93FC93EA89FB893196C3
:10029C00EA8BFB8B3197E4912E2FE03009F415C1DA
:1002AC00E12FE03039F4253211F411E002C00E9444
:1002BC00D4020AC1E130A9F4253219F40E94D40207
:1002CC0002C112E040E000E02D3211F401E0FCC06C
:1002DC002B3211F44BE2F8C0203211F440E2F4C09E
:1002EC0002C0E23039F450E013E0203311F400681E
:1002FC00EBC003C0E33009F0E7C0203310F02A3321
:10030C0008F007C0AAE05A9F502DE22FE0535E0F71
:10031C00DBC0E22FE33649F40E94DB02E889F9895D
:10032C00A481AA930E94E102CEC0E33741F40E945B
:10033C00DB020E94E7020E94A7021E2F0AC0E037D0
:10034C0061F40E94DB020E94E7020E94B3021E2F9E
:10035C00086002600F7730E034C0E43611F0E93603
:10036C0011F4046002C0E53731F4E4E5F0E0EE830B
:10037C00FF8315E00CC0E83511F4086003C0E837C2
:10038C0009F0A1C0EEE5F0E0EE83FF8314E002FF7C
:10039C0014C00E94DB020E94F102AB85AA233AF43E
:1003AC00EA85FB850E940E03EA87FB874DE240300D
:1003BC0011F01F5F01C00B7F04C00E94DB020E9482
:1003CC00F10200FD11C0151778F407FF08C002FFF9
:1003DC0004C00B7F242F115001C020E301C020E288
:1003EC000E94D4025150EFCF312F01FF17C0303093
:1003FC00A1F003FF06C0EE81FF812591EE83FF8300
:10040C0005C0AE81BF812D91AE83BF830E94D40203
:10041C00503009F051503150EACF4BC020E3EE81FF
:10042C00FF810E944F03E887F987EE81FF813296A6
:10043C00EE83FF83E885F985AA85BB85AE17BF07D8
:10044C0050F02F5FA885B985EA85FB85EA1BFB0B6D
:10045C00EA87FB87EFCF2A3328F003FF02C0295F1E
:10046C0001C0295D04FD1AC0213320F4A885B9858B
:10047C00119709F409C0531710F000FF01C013C005
:10048C0020E207FF0BC020E3006102FF07C00B7FD7
:10049C004A930E94E102503009F051500E94D4025C
:1004AC00503009F051503150A885B985129708F099
:1004BC00B5CF00FF08C0503031F05150E0E2EA9364
:1004CC000E94E102F8CF10E0E0CEAC85BD850E9421
:1004DC004B030E945F0364960895FF92F82E2697B3
:1004EC000E945A030E94F902309719F4EFEFFFEFC4
:1004FC0023C0DE0116960E940A038D010E94F902A8
:10050C00EE83FF83E0E0E887E987DE011A960E941C
:10051C000A030E944B03FA93EA931A930A93EFEFA0
:10052C00F0E0FA93EA93DE011A96A3DE9F01AE8106
:10053C00BF81E0E0EC93F9010E9461032A96FF90E1
:10054C000895BA93AA93A991B991EE27FF276D91BB
:10055C00662311F03196FBCF0895BA93AA93AA277C
:10056C00BB27E991F9910590002011F01196FBCF72
:10057C00FD010895D301EAE0F0E00E942F03E05D55
:10058C000895D301EAE0F0E00E942A033F01F2CF84
:10059C000E94F800A2E3B0E00C9400032A93AD850E
:1005AC00BE85EF85F88909950895E889F98934970E
:1005BC00E88BF98B0895AD85BE85EF85F889099593
:1005CC000895A889B98914960E944B03EE83FF8382
:1005DC00AE81BF810895A889B98914960E944B03F6
:1005EC00EA87FB870895DE011C960E940A030E948D
:1005FC004B030895109639F080ED97E00197F1F7D1
:10060C00A8951197C9F708950024AF0DB01D089552
:10061C00F195E195F04008956F2F660F660B762FDC
:10062C0008950024112490E1AA0FBB1F001C111C7B
:10063C000E1A1F0A18F40E0E1F1E01C0A1609A9507
:10064C0099F7FD01D001089512D0EBDF0EF4E0DF35
:10065C000895E894B7FF04C0A095B09511966894DE
:10066C00F7FDD6DFDEDFFD010EF4D2DF0895E8944E
:10067C00F7FF02C0CDDF6894B7FF06C0A095B09518
:10068C00119600F8039400FA0895ED91FC911197DE
:10069C0008950590F491E02D08957A936A93FA9356
:1006AC00EA9308955A934A933A932A931A930A9386
:1006BC0008955D814C813B812A81198108810895BF
:00000001FF
