:040000000C94490013
:100004000C9476000C9400000C9400000C940000F6
:100014000C9400000C9400000C9400000C9400005C
:100024000C9400000C9400000C9400000C9400004C
:100034000C94E5000C9400000C9400000C94000057
:100044000C9400000C9400000C9400000C9400002C
:100054001027E80364000A000100001000011000EA
:10006400010000000000000000007761726E696EFC
:10007400670080C0010002006600060004006800FA
:10008400080060026E000200740276000000F8941A
:10009400EE27ECBBF1E0FBBFEBBFE5BF8DE0A2E0D8
:1000A400BB27ED938A95E9F780E098E0A0E6ED930D
:1000B4000197E9F7E8E7F0E085919591009761F001
:1000C400A591B59105901590BF01F00105900D9291
:1000D4000197E1F7FB01F0CFEFE5EDBFE8E0EEBFFC
:1000E400C0E6D2E00C9408010A921A92FA926A933A
:1000F4007A938A939A93AA93BA93EA93FA93EFB76B
:10010400EA93E3B3EF704E2EF0E0309711F4E7E397
:1001140035C0E130A0E0FA0711F4E8E32FC0E23083
:10012400A0E0FA0711F4E9E329C0E430A0E0FA07FB
:1001340011F4E4E323C0E530A0E0FA0711F4E5E3A9
:100144001DC0E630A0E0FA0711F4E6E317C0E8307A
:10015400A0E0FA0711F4E1E311C0E930A0E0FA07E6
:1001640011F4E2E30BC0EA30A0E0FA0711F4E3E390
:1001740005C0ED30A0E0FA0711F4E0E35E2EA52DF2
:100184000E94A801E991EFBFF991E991B991A99170
:100194009991899179916991F9901990099018959B
:1001A4001A938820F1F3E92D9394F0E0E459FD4F7C
:1001B4001081E8E0E91509F49924F8948A94789474
:1001C400E12F19910895EA93FA93EFB7EA931A93FA
:1001D4000A931BB10CB1E12FEC7189F4E62D639401
:1001E400F0E0E459FD4F0083E8E0E61509F46624E5
:1001F4008394E8E0E81519F48824689420F80991B8
:100204001991E991EFBFF991E9911895EFEFE7BBE7
:10021400E0E0E8BBEFEFE4BBE0E0E5BBEABBEBBB4F
:10022400EFEFE7BBE0E0E8BBE4BBE5BBE2E0E1BB4A
:10023400E0E0E2BBE3BFE2BFECBFEFBDEEBDEDBD6E
:10024400ECBDE7BDE6BDEBBDEABDE9BDE8BDE2BD81
:10025400E5BDE4BDE3BDE9BFEBB7E064EBBFE3E0BC
:10026400E5BFE0E0E4BFE0E4EABFE0E0EBB9E8E9E1
:10027400EAB9E6E8E0BDE0E0E0BDE3E3E9B9E0E8DF
:10028400E8B9E0E0E0BFE6B9EDB9E6BFA8E084D0A4
:10029400789486DF7E2E772061F482DFE093680213
:1002A4007FDFE09369027CDFE0936A0279DFE09309
:1002B4006B02552031F0A2E00E94FB01A52D0E94A3
:1002C400FB01E1E0E71531F4A0E6B2E054D0A3E08D
:1002D4000E94FB01DECFFFCFAA93E8B3EF70AE2FED
:1002E400E881E07FEA2BE8BB8DE08A95F1F7C29ABA
:1002F4008DE08A95F1F7C2988DE08A95F1F70C9418
:100304000002AA93A881E8DFE881E295E883A88146
:10031400E3DF85E88A95F1F771C0AA93E881F0E0FC
:10032400EC58FD4FE081A981AE0FEBDFB980A880C6
:1003340022960895A2E00E940202ACE0E2DFA1E06E
:100344000E940202E0E0AE2EBE2E0895AA93A88178
:10035400AA3011F0BD1448F0E0E0EA93A394AA2D6A
:10036400DCDFA881AA3009F449C0B394C09AA881FB
:10037400C8DFC09843C0BA93AA931A93A981BA81DB
:10038400ED91A983BA831E2FE03019F0A12FDEDF8F
:10039400F5CF188123960895AA93E7B3E06FE7BBDE
:1003A400BA9AB89AB99AC298C098C198D880E88184
:1003B400E058E0937602E881E054E0937702A4E108
:1003C400B0E00E9410020E9408020E9408020E94EB
:1003D4000802A0E281DF88EC90E00197F1F7A8E23F
:1003E40090DFA4E08EDFA5E88CDFA6E08ADFA2DF41
:1003F40005C0AA935D9BFECFE881ECB921960895D0
:100404000E948301A3E0B0E00C941002A0E30E94D8
:100414006E0188EC90E00197F1F70895109639F099
:1004240080ED97E00197F1F7A8951197C9F7089522
:00000001FF
