:100000000C9442000C946F000C9400000C940000BF
:100010000C9400000C9400000C9400000C94000060
:100020000C9400000C9400000C9400000C94000050
:100030000C9400000C94DE000C9400000C94000062
:100040000C9400000C9400000C9400000C94000030
:100050000C9400001027E80364000A00010000105F
:10006000000110000100000000000000000080C03E
:1000700001000200660006000400680002006C0235
:100080006E000000F894EE27ECBBF1E0FBBFEBBF85
:10009000E5BF8DE0A2E0BB27ED938A95E9F780E00C
:1000A00098E0A0E6ED930197E9F7E0E7F0E08591AD
:1000B0009591009761F0A591B59105901590BF01BC
:1000C000F00105900D920197E1F7FB01F0CFEFE50C
:1000D000EDBFE8E0EEBFC0E6D2E00C9401010A9269
:1000E0001A92FA926A937A938A939A93AA93BA93FA
:1000F000EA93FA93EFB7EA93E3B3EF704E2EF0E092
:10010000309711F4E7E335C0E130A0E0FA0711F4CD
:10011000E8E32FC0E230A0E0FA0711F4E9E329C0D8
:10012000E430A0E0FA0711F4E4E323C0E530A0E0F6
:10013000FA0711F4E5E31DC0E630A0E0FA0711F478
:10014000E6E317C0E830A0E0FA0711F4E1E311C0DC
:10015000E930A0E0FA0711F4E2E30BC0EA30A0E0D6
:10016000FA0711F4E3E305C0ED30A0E0FA0711F45B
:10017000E0E35E2EA52D0E949E01E991EFBFF9916B
:10018000E991B991A9919991899179916991F990A0
:100190001990099018951A939920F1F3E62D63941C
:1001A000F0E0EC59FD4F1081E8E0E61509F4662413
:1001B000F8949A947894E12F19910895EA93FA9318
:1001C000EFB7EA931A930A931BB10CB1E12FEC71CC
:1001D00089F4E72D7394F0E0EC59FD4F0083E8E0DB
:1001E000E71509F477249394E8E0E91519F49924C4
:1001F000689420F809911991E991EFBFF991E9917B
:100200001895EFEFE7BBE0E0E8BBEFEFE4BBE0E021
:10021000E5BBEABBEBBBEFEFE7BBE0E0E8BBE4BB71
:10022000E5BBE2E0E1BBE0E0E2BBE3BFE2BFECBF85
:10023000EFBDEEBDEDBDECBDE7BDE6BDEBBDEABD7E
:10024000E9BDE8BDE2BDE5BDE4BDE3BDE9BFEBB797
:10025000E064EBBFE3E0E5BFE0E0E4BFE0E4EABF79
:10026000E0E0EBB9E8E9EAB9E6E8E0BDE0E0E0BDEE
:10027000E3E3E9B9E0E8E8B9E0E0E0BFE6B9EDB909
:10028000E6BFA8E081D0789486DFE03079F483DFA0
:10029000E093600280DFE09361027DDFE093620221
:1002A0007ADFE0936302A0E6B2E05DD0552051F022
:1002B000A2E00E94F101AAE0B0E00E940602A52D92
:1002C0000E94F101E1CFFFCFAA93E8B3EF70AE2F08
:1002D000E881E07FEA2BE8BB8DE08A95F1F7C29ACE
:1002E0008DE08A95F1F7C2988DE08A95F1F70C942C
:1002F000F601AA93A881E8DFE881E295E883A88166
:10030000E3DF85E88A95F1F771C0AA93E881F0E010
:10031000E459FD4FE081A981AE0FEBDF8980B88001
:1003200022960895A2E00E94F801ACE0E2DFA1E08D
:100330000E94F801E0E0BE2E8E2E0895AA93A881B7
:10034000AA3011F08A1448F0E0E0EA93B394AB2DA0
:10035000DCDFA881AA3009F449C08394C09AA8813F
:10036000C8DFC09843C0BA93AA931A93A981BA81EF
:10037000ED91A983BA831E2FE03019F0A12FDEDFA3
:10038000F5CF188123960895AA93E7B3E06FE7BBF2
:10039000BA9AB89AB99AC298C098C198A880E881C8
:1003A000E058E0936E02E881E054E0936F02A4E12C
:1003B000B0E00E9406020E94FE010E94FE010E941F
:1003C000FE01A0E281DF88EC90E00197F1F7A8E25E
:1003D00090DFA4E08EDFA5E88CDFA6E08ADFA2DF55
:1003E00005C0AA935D9BFECFE881ECB921960895E4
:1003F0000E947901A3E0B0E00C940602A0E30E9401
:10040000640188EC90E00197F1F70895109639F0B7
:1004100080ED97E00197F1F7A8951197C9F7089536
:00000001FF
