:0A0000000C9441000C9400000C94D5
:10000A0000000C9400000C94A4000C9400000C94C2
:10001A0000000C9400000C9400000C9400000C9456
:10002A0000000C9400000C9400000C946E000C94D8
:10003A0000000C9400000C9400000C9400000C9436
:10004A0000000C9400000C9400001027E8036400E0
:10005A000A00010000100001100001000000000069
:10006A00000080C001000200660004000800680069
:10007A0002006E026C000000F894EE27ECBBF1E07F
:10008A00FBBFEBBFE5BF8DE0A2E0BB27ED938A95EE
:10009A00E9F780E098E0A0E6ED930197E9F7EEE64C
:1000AA00F0E085919591009761F0A591B591059041
:1000BA001590BF01F00105900D920197E1F7FB0140
:1000CA00F0CFEFE5EDBFE8E0EEBFC0E6D2E00C947A
:1000DA00A500EA93FA93EFB7EA931A930A931BB12E
:1000EA000CB1E12FEC7189F4E92D9394F0E0E05A18
:1000FA00FD4F0083E8E0E91509F49924B394E8E098
:10010A00EB1519F4BB24689420F809911991E99127
:10011A00EFBFF991E99118951A93BB20F1F3E82DF5
:10012A008394F0E0E05AFD4F1081E8E0E81509F405
:10013A008824F894BA947894E12F1991089518951F
:10014A00E0E0EABBEBBBE7BBE8BBEFEFE4BBE0E018
:10015A00E5BBE0E8E1BBE0E0E2BBE3BFE2BFECBF46
:10016A00EFBDEEBDEDBDECBDE7BDE6BDEBBDEABD45
:10017A00E9BDE8BDE2BDECE6E5BDE0E0E4BDE3BD16
:10018A00E0E8E9BFE0E0E5BFE4BFEBB9E0E9EAB9DE
:10019A00E6E8E0BDE0E0E0BDE3E3E9B9E0E8E8B9BC
:1001AA00E0E0E0BFE6B9EDB9E6BFA8E0C6D07894D2
:1001BA00B3DF6E2EB1DF5E2EAFDF7E2EADDF4E2EA9
:1001CA00451451F4E1E0E51511F4E41529F0552040
:1001DA0011F4442009F051C0E52DF0E0F0976F01C9
:1001EA00E42DF0E0F097E0936802F0936902F601DB
:1001FA00AAE0B0E00E94F402A0916802B0916902FC
:10020A00EA0FFB1F0E94D101E0916A02F0916B0292
:10021A000E94E7020E945F02A0E0B0E08CE491E451
:10022A000E948D02AAE6B2E00E942802ED93FC9396
:10023A00E0916A02E3BD0E94D6010E941103E05DCB
:10024A00AE2E0E94D6010E94DD010E941103E05DDC
:10025A00E0936C020E94D6010E94DD010E94110304
:10026A00E05DE0936D02A0916D0248D0A0916C020E
:10027A0045D0AA2D43D0AAE241D09ACFFFCFAA9364
:10028A00E5B3EF70AE2FE881E07FEA2BE5BB8DE0A6
:10029A008A95F1F7AA9A8DE08A95F1F7AA988DE0E6
:1002AA008A95F1F777C0AA93A881E9DFE881E295F8
:1002BA00E883A881E4DF85E88A95F1F76BC0AA9301
:1002CA00E881F0E0E259FD4FE081A981AE0FEBDF52
:1002DA00E981E0937202E881E0937302229608951D
:1002EA00A2E00E94E101ACE0DEDFA1E00E94E101B0
:1002FA00E0E0E0937302E09372020895AA93A88162
:10030A00AA3031F0E0917402A0917202AE1758F04F
:10031A00E0E0EA93A0917302AF5FA0937302CFDF8C
:10032A00A881AA30B9F1E0917202EF5FE0937202FC
:10033A00A89AA881B8DFA8982DC0AA93E4B3E06F61
:10034A00E4BBA29AA09AA19AAA98A898A998E88127
:10035A00E0937402E058E0937002E881E054E0937D
:10036A007102A4E1B0E00E94EF010E94E7010E943D
:10037A00E7010E94E701A0E282DF88EC90E00197A2
:10038A00F1F7A8E290DFA4E08EDFA5E88CDFA6E013
:10039A008ADFA6DF21960895E0936A02F0936B0242
:1003AA000895A0916A02B0916B02EAE0F0E0089524
:1003BA000E940C03F1DFF5CF0E945801A3E0B0E0E0
:1003CA000C94EF01A0E30E94440188EC90E00197AD
:1003DA00F1F70895109639F080ED97E00197F1F75B
:1003EA00A8951197C9F70895552342F4503811F486
:1003FA00E0FF04C03196691F791F6BF050E8572758
:10040A0011F45F9373C05F3F31F0660F000C57958C
:10041A006795752F08955F9300200AF073C06CC02A
:10042A0050E8192E1522880F991F9527550F879581
:10043A0050E8072E0522660F771F7527550F679517
:10044A000895689401C0E8945F93F2DF703818F059
:10045A007F3F08F44BC056E1571BAAF45195583018
:10046A000EF4593030F0EFEFFFEF6FEF7FE777F9D7
:10047A001AC077275523B9F0EE0FFF1F661F771FA3
:10048A005A95D1F710C07727583028F0EF2FF62F5A
:10049A00672F5850F9CF552331F076956795F79520
:1004AA00E7955A95D1F700200AF484D05F91089510
:1004BA00689401C0E894309760407040B1F000241D
:1004CA0026F0772312F4009475D0172E7EE11120BE
:1004DA0032F07A95EE0FFF1F661F111CF9CFEF2F2E
:1004EA00F62F612D5F938ADF5F910895EE27FF272C
:1004FA00662777275F910895EFEFFFEF6FE77FEFAA
:10050A005F910895EFEFFFEF6FE77FE75F9108953F
:10051A005F9386DF703851F3903841F301240894D1
:10052A00791F23F41CF300203AF3ECCF0F921F93A8
:10053A002F933F934F93112722279927689FA00152
:10054A008F9F302D410D591F6B9F300D411D591F33
:10055A008E9F27D0BF9F25D06A9F23D0BE9F1DD0D4
:10056A00AF9F1BD0AE9F110D291F391F491F591F5D
:10057A00E32FF42F652F522F4F913F912F911F9107
:10058A000F9066232AF0550FEE1FFF1F661F02C049
:10059A0073954BF229DF5F910895100D211D391FC4
:1005AA0002C0200D311D491F591F0895F195E1958B
:1005BA00F0400895F09560957095E195FF4F6F4F63
:1005CA007F4F08956F2F660F660B762F0895FA9F57
:1005DA00F02DEB9FF00DEA9FE02DF10D08952AD042
:1005EA00F6DF0EF4E3DF08950024112490E1AA0F48
:1005FA00BB1F001C111C0E1A1F0A18F40E0E1F1E18
:10060A0001C0A1609A9599F7FD01D001089512D011
:10061A00EBDF0EF4CBDF0895E894B7FF04C0A09592
:10062A00B09511966894F7FDC1DFDEDFFD010EF487
:10063A00BDDF0895E894F7FF02C0B8DF6894B7FFFA
:10064A0006C0A095B095119600F8039400FA089593
:00000001FF
